{
  "contractName": "TodoList",
  "abi": [
    {
      "inputs": [],
      "payable": false,
      "stateMutability": "nonpayable",
      "type": "constructor"
    },
    {
      "anonymous": false,
      "inputs": [
        {
          "indexed": false,
          "internalType": "uint256",
          "name": "id",
          "type": "uint256"
        },
        {
          "indexed": false,
          "internalType": "bool",
          "name": "completed",
          "type": "bool"
        }
      ],
      "name": "TaskCompleted",
      "type": "event"
    },
    {
      "anonymous": false,
      "inputs": [
        {
          "indexed": false,
          "internalType": "uint256",
          "name": "id",
          "type": "uint256"
        },
        {
          "indexed": false,
          "internalType": "string",
          "name": "content",
          "type": "string"
        }
      ],
      "name": "TaskDelete",
      "type": "event"
    },
    {
      "constant": true,
      "inputs": [],
      "name": "taskCount",
      "outputs": [
        {
          "internalType": "uint256",
          "name": "",
          "type": "uint256"
        }
      ],
      "payable": false,
      "stateMutability": "view",
      "type": "function"
    },
    {
      "constant": true,
      "inputs": [
        {
          "internalType": "uint256",
          "name": "",
          "type": "uint256"
        }
      ],
      "name": "tasks",
      "outputs": [
        {
          "internalType": "uint256",
          "name": "id",
          "type": "uint256"
        },
        {
          "internalType": "string",
          "name": "content",
          "type": "string"
        },
        {
          "internalType": "bool",
          "name": "completed",
          "type": "bool"
        }
      ],
      "payable": false,
      "stateMutability": "view",
      "type": "function"
    },
    {
      "constant": false,
      "inputs": [
        {
          "internalType": "string",
          "name": "_content",
          "type": "string"
        }
      ],
      "name": "createTask",
      "outputs": [],
      "payable": false,
      "stateMutability": "nonpayable",
      "type": "function"
    },
    {
      "constant": false,
      "inputs": [
        {
          "internalType": "uint256",
          "name": "_id",
          "type": "uint256"
        }
      ],
      "name": "toggleCompleted",
      "outputs": [],
      "payable": false,
      "stateMutability": "nonpayable",
      "type": "function"
    },
    {
      "constant": false,
      "inputs": [
        {
          "internalType": "uint256",
          "name": "_id",
          "type": "uint256"
        }
      ],
      "name": "deleteTask",
      "outputs": [],
      "payable": false,
      "stateMutability": "nonpayable",
      "type": "function"
    }
  ],
  "bytecode": "0x60806040526000805534801561001457600080fd5b506100596040518060400160405280602081526020017f696e697469616c69736520637265617465207461736b20746f646f206c6973748152506100c660201b60201c565b60408051808201909152600c81526b4b69636b2074686520446f6760a01b602082015261008e906001600160e01b036100c616565b60408051808201909152600a815269313abc90313ab933b2b960b11b60208201526100c1906001600160e01b036100c616565b6101cd565b600080546001908101808355604080516060810182528281526020808201878152828401879052938652848152919094208451815591518051929361011393908501929190910190610132565b50604091909101516002909101805460ff191691151591909117905550565b828054600181600116156101000203166002900490600052602060002090601f016020900481019282601f1061017357805160ff19168380011785556101a0565b828001600101855582156101a0579182015b828111156101a0578251825591602001919060010190610185565b506101ac9291506101b0565b5090565b6101ca91905b808211156101ac57600081556001016101b6565b90565b610750806101dc6000396000f3fe608060405234801561001057600080fd5b50600436106100575760003560e01c8063111002aa1461005c578063455f502414610104578063560f3192146101215780638d9776721461013e578063b6cb58a5146101e5575b600080fd5b6101026004803603602081101561007257600080fd5b81019060208101813564010000000081111561008d57600080fd5b82018360208201111561009f57600080fd5b803590602001918460018302840111640100000000831117156100c157600080fd5b91908080601f0160208091040260200160405190810160405280939291908181526020018383808284376000920191909152509295506101ff945050505050565b005b6101026004803603602081101561011a57600080fd5b503561026b565b6101026004803603602081101561013757600080fd5b503561035e565b61015b6004803603602081101561015457600080fd5b5035610533565b604051808481526020018060200183151515158152602001828103825284818151815260200191508051906020019080838360005b838110156101a8578181015183820152602001610190565b50505050905090810190601f1680156101d55780820380516001836020036101000a031916815260200191505b5094505050505060405180910390f35b6101ed6105e2565b60408051918252519081900360200190f35b600080546001908101808355604080516060810182528281526020808201878152828401879052938652848152919094208451815591518051929361024c939085019291909101906105e8565b50604091909101516002909101805460ff191691151591909117905550565b60008181526001602081815260409283902060028101805460ff19811660ff909116151790558351808501909452828452601b60fa1b93909101928352916102b79183810191906105e8565b50806001600084815260200190815260200160002060008201548160000155600182018160010190805460018160011615610100020316600290046102fd929190610666565b50600291820154908201805460ff191660ff92831615151790559082015460408051858152919092161515602082015281517fe21fa966ca5cd02748c0752352d18c48165e61cb55b4c29cccf924b5a95fcff1929181900390910190a15050565b6103666106db565b60008281526001602081815260409283902083516060810185528154815281840180548651600296821615610100026000190190911695909504601f8101859004850286018501909652858552909491938584019390929083018282801561040f5780601f106103e45761010080835404028352916020019161040f565b820191906000526020600020905b8154815290600101906020018083116103f257829003601f168201915b50505091835250506002919091015460ff1615156020918201526040805180820182526001808252603560f91b82850152848401918252600087815281855292909220845181559051805194955085949193610470938501929101906105e8565b50604091820151600291909101805460ff1916911515919091179055602082810151825185815280830184815282519482019490945281517f58877a83f44f9d3c3c2e79bf0be0fd156c582033ab6d93a795ab20836246b2a89487949091606084019185019080838360005b838110156104f45781810151838201526020016104dc565b50505050905090810190601f1680156105215780820380516001836020036101000a031916815260200191505b50935050505060405180910390a15050565b600160208181526000928352604092839020805481840180548651600296821615610100026000190190911695909504601f810185900485028601850190965285855290949193929091908301828280156105cf5780601f106105a4576101008083540402835291602001916105cf565b820191906000526020600020905b8154815290600101906020018083116105b257829003601f168201915b5050506002909301549192505060ff1683565b60005481565b828054600181600116156101000203166002900490600052602060002090601f016020900481019282601f1061062957805160ff1916838001178555610656565b82800160010185558215610656579182015b8281111561065657825182559160200191906001019061063b565b506106629291506106fe565b5090565b828054600181600116156101000203166002900490600052602060002090601f016020900481019282601f1061069f5780548555610656565b8280016001018555821561065657600052602060002091601f016020900482015b828111156106565782548255916001019190600101906106c0565b604051806060016040528060008152602001606081526020016000151581525090565b61071891905b808211156106625760008155600101610704565b9056fea265627a7a723158207d60a89144b3796469e6203c23f584b08a58630e12f5b2105a4aacd023f4b7f364736f6c63430005100032",
  "source": "pragma solidity ^0.5.0;\n\ncontract TodoList {\n    uint256 public taskCount = 0;\n\n    constructor() public {\n        createTask(\"initialise create task todo list\");\n        createTask(\"Kick the Dog\");\n        createTask(\"buy burger\");\n    }\n\n    struct Task {\n        uint256 id;\n        string content;\n        bool completed;\n    }\n    mapping(uint256 => Task) public tasks;\n\n    function createTask(string memory _content) public {\n        taskCount++;\n        tasks[taskCount] = Task(taskCount, _content, false);\n    }\n\n    event TaskCompleted(uint256 id, bool completed);\n\n    function toggleCompleted(uint256 _id) public {\n        Task storage _task = tasks[_id];\n        _task.completed = !_task.completed;\n        _task.content = \"l\";\n        tasks[_id] = _task;\n        emit TaskCompleted(_id, _task.completed);\n    }\n\n    event TaskDelete(uint256 id, string content);\n\n    function deleteTask(uint256 _id) public {\n        Task memory _task = tasks[_id];\n        _task.content = \"j\";\n        tasks[_id] = _task;\n        emit TaskDelete(_id, _task.content);\n    }\n}\n",
  "sourcePath": "/Users/mitchelldeyoung/GIT-REPOS/eth-todo-list/blockchain/contracts/TodoList.sol",
  "compiler": {
    "name": "solc",
    "version": "0.5.16+commit.9c3226ce.Emscripten.clang"
  },
  "schemaVersion": "3.3.3",
  "updatedAt": "2021-02-16T06:49:33.422Z",
  "devdoc": {
    "methods": {}
  },
  "userdoc": {
    "methods": {}
  }
}